:100000000C9453160C9484160C9484160C94841639
:100010000C9484160C9484160C9484160C948416F8
:100020000C9484160C9484160C9484160C948416E8
:100030000C9484160C9484160C9484160C948416D8
:100040000C9484160C94E9670C9484160C94841612
:100050000C9484160C9484160C945C7D0C94BB7BDD
:100060000C9484160C94BB7A0C94927A0C9484169B
:100070000C9484160C9484160C9484160C94841698
:100080000C9484160C9484160C9484160C94841688
:100090000C9484160C9484160C9484160C94841678
:1000A0000C9484160C9484160C9484160C94841668
:1000B0000C9484160C9484160C9484160C94841658
:1000C0000C9484160C9484160C9484160C94697AFF
:1000D0000C94407A0C9484160C9484160C94841618
:1000E0000C94841685468A468F469946A3461C473B
:1000F000AD46B546BD46C746D146DB46EA46F44660
:100100001C47FE46084712479479977986798A7981
:100110009079CE799B799F79A579A979AD79B379D1
:10012000B779BB79CE79C179C579C979DAA2E8A264
:10013000EBA23FA31CA338A322A325A31FA330A394
:10014000084AD73B3BCE016E84BCBFFDC12F3D6C3E
:1001500074319ABD56833DDA3D00C77F11BED9E4A4
:10016000BB4C3E916BAAAABE000000803F05A84C84
:10017000CDB2D44EB93836A9020C50B99186880850
:100180003CA6AAAA2ABE000000803F004E414E496C
:100190004E495459494E46CDCCCC3D0AD7233C1745
:1001A000B7D13877CC2B329595E6241FB14F0A0092
:1001B0000020410000C84200401C4620BCBE4CCA82
:1001C0001B0E5AAEC59D7447393000473120452D6E
:1001D000312046313230004739310047393000474D
:1001E0003120453120463132300047393100473126
:1001F000205A2D302E352046313030300047312006
:100200005A302E3520463130303000473120592DBC
:1002100034204631303030004731205934204631C7
:1002200030303000473120582D34204631303030C6
:1002300000473120583420463130303000496E7646
:10024000616C6964206B65792076616C756520004E
:10025000496E76616C6964206B65792076616C7596
:10026000652000496E76616C6964206B6579207643
:10027000616C75652000496E76616C6964206B6500
:10028000792076616C756520004930004D65617399
:10029000757265205A2D6865696768740047323841
:1002A00020583020593000496E76616C6964206BAB
:1002B00065792076616C756520004D3432302053AD
:1002C00031004D35303000496E76616C6964206BC9
:1002D00065792076616C75652000496E76616C6980
:1002E00064206B65792076616C75652000496E76B7
:1002F000616C6964206B65792076616C756520009E
:10030000526563656976696E67204672616D652026
:1003100028416363656C65726174696F6E20536513
:100320007474696E67732900496E76616C69642024
:100330006B65792076616C7565200052656365692F
:1003400076696E67204672616D652028416363653A
:100350006C65726174696F6E2053657474696E6741
:10036000732900496E76616C6964206B657920762B
:10037000616C75652000526563656976696E6720FA
:100380004672616D652028466565647261746520FA
:1003900053657474696E67732900496E76616C6980
:1003A00064206B65792076616C7565200052656309
:1003B000656976696E67204672616D6520285374A1
:1003C0006570732053657474696E67732900496E94
:1003D00076616C6964206B65792076616C75652047
:1003E00000526563656976696E67204672616D6566
:1003F00020285049442053657474696E677329003E
:10040000496E76616C6964206B65792076616C75E4
:10041000652000526563656976696E672046726182
:100420006D6520285072696E742053657474696E0E
:1004300067732900496E76616C6964206B65792069
:1004400076616C75652000496E76616C6964206B1D
:1004500065792076616C75652000496E76616C69FE
:1004600064206B65792076616C75652000496E7635
:10047000616C6964206B65792076616C756520001C
:10048000496E76616C6964206B65792076616C7564
:10049000652000496E76616C6964206B6579207611
:1004A000616C75652000496E76616C6964206B65CE
:1004B000792076616C7565200045302043382055E1
:1004C00031004D3330332053004D3130362053321C
:1004D000353500496E76616C6964206B65792076EC
:1004E000616C75652000526563656976696E672089
:1004F0004672616D6520284D65617375726573295B
:1005000000496E76616C6964206B65792076616C58
:1005100075652000473932204530004D38320041A2
:10052000646A7573743A206F6C64203D20002C203F
:100530006578706563746564203D20002C206D65CE
:10054000617375726564203D20002C206E657720F4
:100550003D2000526563656976696E672046726169
:100560006D6520284D656173757265732900486556
:100570006174696E6720746865206578747275644B
:1005800065722E2E2E00496E76616C6964206B6553
:10059000792076616C756520004731205A33302010
:1005A0004632303030004731205A3020463130302A
:1005B000300047312058313030205931303020461A
:1005C00036303030004731205A313020463230301A
:1005D00030004C6576656C2073746570203500477B
:1005E00031205A30204631303030004731205833E6
:1005F00030205931373020463630303000473120F6
:100600005A3130204632303030004C6576656C20EF
:10061000737465702034004731205A3020463130E1
:1006200030300047312058313730205933302046A0
:1006300036303030004731205A31302046323030A9
:1006400030004C6576656C2073746570203300470C
:1006500031205A3020463130303000473120583177
:10066000373020593137302046363030300047316E
:10067000205A3130204632303030004C6576656C7F
:1006800020737465702032004731205A3020463183
:100690003030300047312058333020593330204635
:1006A00036303030004731205A3130204632303039
:1006B00030004C6576656C2073746570203100479E
:1006C00032380047393000486F6D696E672E2E2E24
:1006D00000496E76616C6964206B65792076616C87
:1006E000756520004D35303200496E76616C696465
:1006F000206B65792076616C75652000496E7661A6
:100700006C6964206B65792076616C756520004D9D
:1007100038340047323800473238205A30004732E8
:10072000382059300047323820583000496E766101
:100730006C6964206B65792076616C756520004377
:100740006F6F6C646F776E004D3134302053004D05
:10075000313034205300526563656976696E6720D5
:100760004672616D65202850726573657473290047
:1007700050726568656174205374617274005072C0
:100780006568656174207061676500496E76616CAB
:100790006964206B65792076616C75652000496E0F
:1007A00076616C6964206B65792076616C75652073
:1007B000004E6F20436F6E74696E756520616374BF
:1007C000696F6E20646566696E6564004E6F2042D5
:1007D00061636B20616374696F6E20646566696E26
:1007E000656400496E76616C6964206B657920767A
:1007F000616C756520002F2F616374696F6E3A72AA
:100800006573756D650A004D323400526573756D00
:1008100065207072696E74696E6700526573756DDC
:1008200065205072696E74002F2F616374696F6E5A
:100830003A70617573650A004D313235005061754B
:100840007365207072696E74696E672E2E2E00506B
:100850006175736520555342205072696E74002F84
:100860002F616374696F6E3A646973636F6E6E654E
:1008700063740A0053746F7020555342205072699C
:100880006E7400496E76616C6964206B65792076C0
:10089000616C756520004D323400526573756D656D
:1008A000207072696E74696E6700526573756D654C
:1008B000205072696E74004D31323500506175738D
:1008C00065207072696E74696E672E2E2E005061FD
:1008D000757365205072696E740053746F70205385
:1008E00044205072696E7400496E76616C696420B0
:1008F0006B65792076616C7565200054727920747F
:100900006F206163636573732074686520534420AE
:10091000636172642E2E2E0053696C656E742042E2
:10092000757A7A00496E76616C69642061637469D6
:100930006F6E20003E3E3E200020776F7264732C65
:1009400020416374696F6E203D20002C204B657937
:1009500056616C7565203D200072656164696E6743
:1009600020696E636F6D696E67204672616D650008
:10097000434F4D4D554E49434154494F4E0044520B
:100980005952554E004552524F525300494E464F10
:10099000004543484F00496E76616C696420492DDB
:1009A000636F6465206E756D626572200047322F3B
:1009B00047332062616420706172616D6574657295
:1009C000730A00536C6565702E2E2E0050726F6294
:1009D000696E67206661696C65640A0050726F62B7
:1009E000696E67206661696C656400205A3A200070
:1009F00020593A200042656420583A20004D313297
:100A000035005344207072696E74696E6720627994
:100A1000746520004E6F74205344207072696E74A8
:100A2000696E670A0046696C652064656C6574656B
:100A3000643A0044656C6574696F6E206661696C28
:100A400065642C2046696C653A20006F70656E20E5
:100A50006661696C65642C2046696C653A200050BB
:100A600072696E742074696D653A200050726F74FB
:100A700065637465642050696E0A006D0046696C98
:100A8000616D656E7420757365643A2000537461FE
:100A900074733A20002C204C6F6E67657374206A63
:100AA0006F623A2000546F74616C2074696D653A0E
:100AB000200053746174733A20002C204661696CE5
:100AC00065643A20002C2046696E69736865643A53
:100AD00020005072696E74733A200053746174730D
:100AE0003A20004578747275646572202569202566
:100AF000730057616E68616F204475706C69636143
:100B0000746F7220693320506C7573207265616454
:100B1000792E0091098C0985097E0970096F666636
:100B20000044454255473A004D3131332053006F60
:100B30006B0048656174696E6720646F6E652E0096
:100B400020573A00457874727564657220256920D3
:100B500025730057616E68616F204475706C69631E
:100B600061746F7220693320506C757320726561F7
:100B700064792E0042656420646F6E652E002057F4
:100B80003A004265642048656174696E672E0053BF
:100B9000657474696E672054726176656C20416378
:100BA00063656C65726174696F6E3A200053657499
:100BB00074696E6720526574726163742041636367
:100BC000656C65726174696F6E3A20005365747468
:100BD000696E67205072696E7420416363656C654D
:100BE000726174696F6E3A200053657474696E6740
:100BF000205072696E7420616E6420547261766553
:100C00006C20416363656C65726174696F6E3A2034
:100C100000205A00205900580020204D61783A20C9
:100C200000205A00205900580020204D696E3A20BB
:100C3000004F6E20004F666600536F667420656E2D
:100C40006473746F70733A200000013D3E3C36FFC0
:100C500040413F18FF43454217FFFFFF0305FFFFD9
:100C6000FF3A3B39FFFF034404FF37FFFFFFFFFF5D
:100C7000FF20643A0020693A0020703A0043290AB4
:100C80000061626C656420286D696E2074656D700A
:100C90002000436F6C6420657874727564657320FE
:100CA00061726520004D313036205330004175743B
:100CB0006F205049442066696E697368656400233B
:100CC000646566696E65202044454641554C545F15
:100CD0004B64200023646566696E652020444546A8
:100CE00041554C545F4B69200023646566696E650D
:100CF000202044454641554C545F4B7020005049DC
:100D000044204175746F74756E652066696E6973F1
:100D1000686564212050757420746865206C617367
:100D200074204B702C204B6920616E64204B642032
:100D3000636F6E7374616E74732066726F6D206280
:100D4000656C6F7720696E746F20436F6E6669679C
:100D500075726174696F6E2E680A005049442041B3
:100D600075746F74756E65206661696C65642120A9
:100D700074696D656F75740A005468652074656DDB
:100D80007065726174757265206861732064657640
:100D9000696174656420746F6F206D7563680054B9
:100DA0006865726D616C2052756E6177617900487B
:100DB000656174696E67206661696C656400486589
:100DC0006174696E67206661696C656400504944AE
:100DD000204175746F74756E65206661696C656419
:100DE000212054656D706572617475726520746F31
:100DF0006F20686967680A00204B643A2000204B26
:100E0000693A2000204B703A20000A20436C61733D
:100E100073696320504944200A002054753A200029
:100E2000204B753A2000206D61783A2000206D69D2
:100E30006E3A200020643A200020626961733A20F3
:100E400000416374697665204578747275646572D3
:100E50003A2000556E6B6E6F776E20636F6D6D611B
:100E60006E643A2022002569730025696D2025698A
:100E700073002569682025696D202569730025693F
:100E800064202569682025696D202569730025691E
:100E90007920256964202569682025696D202569E8
:100EA00073004C696E65204E756D626572206973C2
:100EB000206E6F74204C617374204C696E65204EF7
:100EC000756D6265722B312C204C617374204C69F6
:100ED0006E653A200053544F505045442E20005028
:100EE00072696E7465722073746F707065642064CB
:100EF000756520746F206572726F72732E2046695B
:100F00007820746865206572726F7220616E64204B
:100F1000757365204D39393920746F20726573748B
:100F20006172742E202854656D70657261747572DB
:100F3000652069732072657365742E205365742073
:100F4000697420616674657220726573746172746D
:100F5000696E67290A004E6F20436865636B73757D
:100F60006D2077697468206C696E65206E756D629E
:100F700065722C204C617374204C696E653A2000B8
:100F8000636865636B73756D206D69736D61746300
:100F9000682C204C617374204C696E653A20004DBA
:100FA000313130004D33310053442072656164208B
:100FB0006572726F720A00446F6E65207072696E9E
:100FC00074696E672066696C650A0020496E7661F7
:100FD0006C69642065787472756465722000000025
:100FE0000000000000000000000000004843000076
:100FF00048430000344320746F6F206C6F6E67208D
:10100000657874727573696F6E2070726576656E3F
:101010007465640A0020636F6C642065787472756F
:1010200073696F6E2070726576656E7465640A0010
:101030004D353030004739300047393100534420B6
:1010400063617264206F6B0A006F70656E526F6F20
:1010500074206661696C65640A00766F6C756D65F5
:101060002E696E6974206661696C65640A00534478
:1010700020696E6974206661696C0A004D32340023
:101080004D3233202573006175746F25692E67001A
:1010900057726974696E6720746F2066696C653A6F
:1010A00020006F70656E206661696C65642C204657
:1010B000696C653A20006F70656E206661696C65C9
:1010C000642C2046696C653A200046696C65207383
:1010D000656C65637465640A002053697A653A201B
:1010E0000046696C65206F70656E65643A20006F1C
:1010F00070656E206661696C65642C2046696C655C
:101100003A20002066696C653A2000646F696E675A
:10111000006672657368004E6F772000454E44206C
:10112000535542524F5554494E450A002220706F84
:1011300073002220706172656E743A22005355422A
:10114000524F5554494E452043414C4C20746172D6
:101150006765743A22004B494C4C45442E2000747C
:101160007279696E6720746F2063616C6C2073758F
:10117000622D67636F64652066696C6573207769AB
:10118000746820746F6F206D616E79206C65766570
:101190006C732E204D4158206C6576656C20697308
:1011A0003A004572726F723A004B494C4C45442EDE
:1011B0002000202D20496E76616C6964206578746A
:1011C0007275646572206E756D62657220210A0009
:1011D0002020506C616E6E65724275666665724263
:1011E000797465733A20002046726565204D656DFF
:1011F0006F72793A2000436F6D70696C65643A20B4
:1012000053657020203920323031380A00207C208C
:10121000417574686F723A2028616E6472697665F0
:1012200074290A00323031382D30362D31302031DA
:10123000323A303000204C61737420557064617410
:1012400065643A2000312E312E380A004D61726CEF
:10125000696E0020536F6674776172652052657302
:1012600065740A00205761746368646F6720526573
:101270007365740A002042726F776E206F75742058
:1012800052657365740A002045787465726E616CEE
:101290002052657365740A00506F77657255700A45
:1012A0000073746172740A006572726F72207772D3
:1012B0006974696E6720746F2066696C650A002026
:1012C0005A3A0020593A0020583A00656E64737407
:1012D0006F7073206869743A2000446F6E652073E4
:1012E0006176696E672066696C652E0A004D323939
:1012F0000024F4D43050C38E20C2A24017828B70D9
:1013000011127A910D816CD90AA861E108C758665B
:1013100007615143061E4B5D05C145A7041A4111E3
:1013200004093D9803713931034036DB026533917E
:1013300002D4305402802E1D02632CEE01752AC5A2
:1013400001B028A001102781018F2564012B244BB7
:1013500001E0223401AC211F018D200D01801FFC12
:1013600000841EED00971DDF00B81CD200E61BC6EE
:1013700000201BBC00641AB200B219A8000A19A010
:10138000006A189900D117910040178B00B5168498
:101390000031167E00B31579003A157300C7146F3B
:1013A0000058146A00EE1366008813630025135E6C
:1013B00000C7125B006C12570015125400C1115186
:1013C0000070114F0021114B00D61049008D1047BD
:1013D000004610440002104200C00F4000800F3E43
:1013E00000420F3C00060F3B00CB0E3800930E3737
:1013F000005C0E3500270E3400F30D3200C10D31B4
:1014000000900D3000600D2E00320D2D00050D2CCA
:1014100000D90C2B00AE0C2900850C29005C0C2790
:1014200000350C27000E0C2600E80B2400C40B240A
:1014300000A00B23007D0B23005A0B2100390B2148
:1014400000180B2000F80A1F00D90A1E00BB0A1E54
:10145000009D0A1D00800A1D00630A1C00470A1B2C
:10146000002C0A1B00110A1A00F7091A00DD0919DD
:1014700000C4091900AB091900920917007B09186B
:1014800000630917004C09160036091600200916DA
:10149000000A091500F5081500E0081400CC08142E
:1014A00000B8081400A4081400900813007D081266
:1014B000006B081300580812004608120034081187
:1014C00000230811001208110001081100F0071094
:1014D00000E0071000D0071000C0071000B0070F91
:1014E00000A107100091070E0083070F0074070F7B
:1014F0000065070E0057070E0049070E003B070D59
:10150000002E070E0020070D0013070D0006070D23
:1015100000F9060C00ED060D00E0060C00D4060CE8
:1015200000C8060C00BC060C00B0060C00A4060B9C
:101530000099060C008D060B0082060B0077060B47
:10154000006C060B0061060A0057060B004C060AE9
:101550000042060A0038060A002E060A0024060A7F
:10156000001A060A001006090007060A00FD050910
:1015700000F4050900EB050900E2050900D9050999
:1015800000D0050900C7050900BE050900B505081A
:1015900000AD050800A50509009C05080094050894
:1015A000008C050800840508007C05080074050807
:1015B000006C050700650508005D05070056050875
:1015C000004E0507004705070040050800380507DD
:1015D00000310507002A050700230507001C050642
:1015E00000160507000F050700080506000205079D
:1015F00000FB040600F5040700EE040600E80406FC
:1016000000E2040700DB040600D5040600CF040650
:1016100000C9040600C3040600BD040600B70406A2
:1016200000B1040500AC040600A6040600A00405F1
:10163000009B04060095040500900406008A04053A
:101640000085040500800406007A04050075040581
:1016500000700405006B04050066040500610405C4
:10166000005C04050057040500520405004D040504
:101670000048040500430405003E0404003A040544
:101680000035040500300404002C04050027040480
:1016900000230405001E0404001A040400160405B7
:1016A00000110404000D04040009040500040404EE
:1016B0000000040400FC030400F8030400F4030425
:1016C00000F0030400EC030400E8030400E4030456
:1016D00000E0030400DC030400D8030400D4030486
:1016E00000D0030400CC030400C8030300C50303B7
:1016F0000024F404D9201BC40C5C0E9804C4095FB8
:101700000265077101F405F900FB04B30048048782
:1017100000C10369005803550003034500BE023AA7
:10172000008402310053022A00290225000402200D
:1017300000E4011C00C8011900AF01170098011452
:101740000084011300710110006101100051010EAD
:101750000043010D0036010B002B010B0020010B93
:1017600000150109000C01090003010800FB000835
:1017700000F3000800EB000700E4000600DE0006AE
:1017800000D8000600D2000600CC000500C7000506
:1017900000C2000500BD000400B9000400B500044B
:1017A00000B1000400AD000400A9000400A500037E
:1017B00000A20003009F0004009B000300980003A8
:1017C000009500020093000300900003008D0002CA
:1017D000008B0003008800020086000200840003E2
:1017E00000810002007F0002007D0002007B0002F9
:1017F0000079000200770001007600020074000208
:101800000072000100710002006F0002006D000113
:10181000006C0002006A000100690002006700011C
:101820000066000100650001006400020062000122
:101830000061000100600001005F0002005D000126
:10184000005C0001005B0001005A0001005900012A
:10185000005800010057000100560001005500012A
:101860000054000100530000005300010052000129
:101870000051000100500001004F0001004E000027
:10188000004E0001004D0001004C0001004B000023
:10189000004B0001004A000100490001004800001F
:1018A000004800010047000100460000004600011A
:1018B0000045000000450001004400010043000015
:1018C000004300010042000000420001004100000E
:1018D0000041000100400001003F0000003F000106
:1018E000003E0000003E0001003D0000003D000100
:1018F000003C0000003C0000003C0001003B0000F8
:10190000003B0001003A0000003A000100390000ED
:1019100000390001003800000038000000380001E4
:1019200000370000003700010036000000360000DC
:1019300000360001003500000035000000350001D0
:1019400000340000003400000034000100330000C7
:1019500000330000003300010032000000320000BC
:1019600000320001003100000031000000310001B0
:10197000003000000030000000300001002F0000A7
:10198000002F0000002F0000002F0001002E00009B
:10199000002E0000002E0001002D0000002D000090
:1019A000002D0000002D0001002C0000002C000084
:1019B000002C0000002C0001002B0000002B000078
:1019C000002B0000002B0001002A0000002A00006C
:1019D000002A0000002A0001002900000029000060
:1019E0000029000000290000002900010028000053
:1019F0000028000000280000002800000028000146
:101A0000002700000027000000270000002700003A
:101A1000002700010026000000260000002600002C
:101A2000002600000026000100250000002500001F
:101A30000025000000250000002500000025000111
:101A40000024000000240000002400000024000006
:101A500000240001002300000023000000230000F8
:101A600000230000002300000023000000230001E9
:101A700000220000002200000022000000220000DE
:101A800000220000002200010021000000210000CF
:101A900000210000002100000021000000210000C2
:101AA00000210001002000000020000000200000B4
:101AB00000200000002000000020000000200000A6
:101AC00000200001001F0000001F0000001F000098
:101AD000001F0000001F0000001F0000001F000189
:101AE000001E0000001E0000001E0000001E00007E
:101AF000004D383420582059205A20450062656432
:101B00000A002C2073797374656D2073746F707084
:101B1000656421204865617465725F49443A20001C
:101B20004D6178696D756D206265642074656D70B6
:101B30006572617475726520657863656564656456
:101B4000004D6178696D756D2074656D70657261A9
:101B500074757265206578636565646564004D41E0
:101B60005854454D5020747269676765726564000A
:101B70004D696E696D756D206265642074656D7068
:101B80006572617475726520657863656564656406
:101B9000004D696E696D756D2074656D706572615B
:101BA00074757265206578636565646564004D4988
:101BB0004E54454D502074726967676572656400C4
:101BC00048656174696E67206661696C6564004888
:101BD000656174696E67206661696C65640048655B
:101BE0006174696E67206661696C6564004865614F
:101BF00074696E67206661696C6564007C3C3E5E5A
:101C00002B3D3F2F5B5D3B2C2A225C0070012C0199
:101C100090012701B0012201C0011D01F00118014E
:101C20001002130130020E0160020901900204014A
:101C3000C002FF000003FA004003F5008003F0003B
:101C4000D003EB002004E6007004E100E004DC00B7
:101C50004005D700C005D2004006CD00D006C80020
:101C60008007C3003008BE00F008B900C009B40006
:101C7000B00AAF00B00BAA00D00CA500000EA00067
:101C8000500F9B00C01096005012910000148C0061
:101C9000C0158700B0178200B0197D00D01B7800F6
:101CA000001E730040206E0090226900F024640042
:101CB00040275F0090295A00E02B5500102E50005D
:101CC00020304B0010324600E033410090353C009C
:101CD0001037370070383200A0392D00B03A280094
:101CE000A03B2300603C1E00103D1900903D1400F5
:101CF000103E0F00703E0A00C03E0500003F00008D
:101D0000403FFBFF803FF6FFC03FF1FF5468652076
:101D100074656D7065726174757265206861732099
:101D2000646576696174656420746F6F206D756396
:101D30006800546865726D616C2052756E617761E0
:101D40007900202F002042403A0020403A00000055
:101D50002100240027002A002D003000330001015B
:101D60000000040107010A010000220025002800EC
:101D70002B002E0031003400020100000501080193
:101D80000B01000020002300260029002C002F005A
:101D900032000001000003010601090105050505E7
:101DA000070508080808020202020A0A08080404D3
:101DB0000404010101010101010103030303030301
:101DC0000303040707070C0C0C0C0C0C0C0C020290
:101DD000020206060606060606060B0B0B0B0B0B8D
:101DE0000B0B01021020200808102040102040801A
:101DF00002010201080402010102040810204080CF
:101E0000804020100804020180040201804020105C
:101E100008040201080402010102040810204080A5
:101E2000010204081020408000000A0B02090C0D7A
:101E30000E0807030401000000000000000000007D
:101E40000000000000000000000000000000000092
:101E5000000000001211100000000000000000004F
:101E600000000000000000000000000000002074DE
:101E70006F6F206C6F6E6720657874727573696F11
:101E80006E2070726576656E7465640A0020636FFB
:101E90006C6420657874727573696F6E20707265FA
:101EA00076656E7465640A0043616E6E6F74206FB0
:101EB00070656E207375626469722000656E71755D
:101EC000657565696E672022006563686F3A004436
:101ED000617461206C656E67746820696E2072653C
:101EE00073706F6E73652028002920646F657320FE
:101EF0006E6F7420636F72726573706F6E6420749E
:101F00006F20726571756573742028002900526511
:101F100067697374657220696E20726573706F6E85
:101F200073652028002920646F6573206E6F74200C
:101F3000636F72726573706F6E6420746F20726568
:101F400071756573742028002900436F6D6D616E93
:101F50006420696E20726573706F6E73652028004F
:101F60002920646F6573206E6F7420636F727265D1
:101F700073706F6E6420746F207265717565737411
:101F8000202800290044617461206C656E677468C4
:101F900020696E20726573706F6E73652028005221
:101FA0006567697374657220696E20726573706FFE
:101FB0006E73652028002900436F6D6D616E64208B
:101FC000696E20726573706F6E736520280029201A
:101FD000646F6573206E6F7420636F7272657370C7
:101FE0006F6E6420746F207265717565737420283C
:101FF0000029004572726F722077726974696E678A
:1020000020746F20454550524F4D210A00290A0087
:102010002062797465733B2063726320005365749A
:1020200074696E67732053746F726564202800535F
:10203000686F772070616765200052656164696E22
:102040006720506963747572654944004375727204
:10205000656E74207061676520696E646578203DE7
:1020600020004E6F204261636B20706167652064C1
:102070006566696E6564004E6F20466F72776172A7
:1020800064207061676520646566696E6564004CF4
:102090006F61642F556E6C6F61642053746F7000B4
:1020A000473932204530004D38320057616974207D
:1020B000756E74696C207468652066696C616D6505
:1020C0006E7420636F6D6573206F75742E2E2E00F5
:1020D00047312045312046313230004C6F61642059
:1020E00046696C616D656E7400473120453120464C
:1020F000313230005761697420756E74696C2074D8
:1021000068652066696C616D656E7420636F6D65CE
:1021100073206F75742E2E2E00473120452D3120EF
:102120004631323000556E6C6F61642046696C61D7
:102130006D656E7400473120452D312046313230B7
:10214000004C6576656C696E6720486F6D65642C20
:102150002073746172742070726F636573730047CB
:1021600031204500473932204530004D3833004793
:1021700031205A32302046323430005761697420A1
:10218000756E74696C2074686520657874727573F7
:10219000696F6E2069732066696E69736865642E65
:1021A0002E2E00473932204530004D383200466926
:1021B0006C616D656E7420657874727564656420F9
:1021C0000046696C616D656E7420696E736572742A
:1021D00065642E2E005072696E74696E6700496ED8
:1021E000736572742066696C616D656E7420616ED2
:1021F0006420707265737320636F6E74696E7565A9
:102200002E2E2E0050617573696E672E2E2E00558E
:102210006E6B6E6F776E20416476616E636564509D
:10222000617573654D6573736167653A2000576129
:102230006974696E6720666F7220686561742E2EFE
:102240002E00526573756D696E67207072696E74C9
:102250002E2E2E00507265737320636F6E74696E3C
:10226000756520746F2068656174004578747275B7
:1022700064696E6720736F6D652066696C616D655A
:102280006E742E2E2E00556E6C6F6164696E672021
:1022900066696C616D656E742E2E2E004D3131377E
:1022A00020004D3131370053544154555320563A94
:1022B000200053696C656E742042757A7A0053541D
:1022C000415455533A2000535441545553205047DC
:1022D0004D3A200044617461207472756E636174BC
:1022E00065640044617461207472756E6361746525
:1022F00064003E3E3E20002062797465732C2063AA
:102300006D64203D20003C3C3C20002062797465D7
:10231000732E00496E76616C696420616D6F756E15
:1023200074206F66206279746573207265636569D5
:10233000766564004461746120746F206265207268
:102340006563656976656420697320746F6F2062C8
:10235000696720666F7220746865204672616D65DA
:102360002062756666657220736F20736B697020DA
:10237000697400496E76616C6964206865616465A2
:1023800072207768656E20726563656976696E672D
:102390002061204672616D653A200047617262617A
:1023A000676520726561643A200054727920746F09
:1023B00020726561642061206279746520616674B1
:1023C00065722074686520656E64206F66206461A4
:1023D00074610054727920746F20726561642061A9
:1023E00020776F726420616674657220746865205E
:1023F000656E64206F662064617461004E6F206DAD
:102400006F76652E00456E642066696C65206C6988
:1024100073740A00426567696E2066696C65206C9A
:102420006973740A00205A3A0020593A0020436F19
:10243000756E7420583A0020453A00205A3A002020
:10244000593A00583A003A004361703A00544845FE
:10245000524D414C5F50524F54454354494F4E00EA
:10246000454D455247454E43595F504152534552A1
:1024700000434153455F4C494748545F42524947E6
:1024800048544E45535300544F47474C455F4C49C1
:102490004748545300534F4654574152455F504F9D
:1024A000574552004255494C445F50455243454EB2
:1024B00054004C4556454C494E475F4441544100F9
:1024C0005A5F50524F4245004155544F4C45564576
:1024D0004C005052494E545F4A4F420050524F47B1
:1024E00052455353004155544F5245504F52545F3B
:1024F00054454D5000564F4C554D4554524943009C
:10250000454550524F4D0053455249414C5F584F3D
:102510004E5F584F4646004649524D574152455F1F
:102520004E414D453A4D61726C696E20312E312E0F
:1025300038202841445669332B2B20332E302E323D
:102540002920534F555243455F434F44455F5552F1
:102550004C3A68747470733A2F2F676974687562A7
:102560002E636F6D2F616E6472697665742F4144BE
:1025700056693370702D4D61726C696E2050524FE8
:10258000544F434F4C5F56455253494F4E3A312EAC
:1025900030204D414348494E455F545950453A57C4
:1025A000616E68616F204475706C696361746F72ED
:1025B00020693320506C757320455854525544455A
:1025C000525F434F554E543A3120555549443A34A1
:1025D000346232663564362D653765342D343762A2
:1025E000662D626538312D63326136623466633739
:1025F0003937350A002F2F20004F666673657473D4
:10260000206170706C696564004572723A20546F85
:102610006F206661722100546F6F206661722066C0
:10262000726F6D207265666572656E636520706F8E
:10263000696E740A003A2000207A5F6D696E3A2054
:10264000202D3230207A5F6D61783A202032300AB6
:102650000050726F6265205A204F66667365740081
:102660004E6F2063617365206C696768740A00624D
:102670007573793A2070617573656420666F722096
:10268000696E7075740A00627573793A20706175AD
:1026900073656420666F7220757365720A006275D7
:1026A00073793A2070726F63657373696E670A009D
:1026B0004B494C4C45442E20004B494C4C20636107
:1026C0007573656420627920746F6F206D7563681F
:1026D00020696E6163746976652074696D65202D6B
:1026E0002063757272656E7420636F6D6D616E64C8
:1026F0003A20002F2F616374696F6E3A706F7765AF
:10270000726F66660A005072696E74657220686145
:102710006C7465642E206B696C6C28292063616C75
:102720006C6564210A000000000000000000000049
:1027300000000000484200004842000080400000C5
:1027400000005761726E696E673A20486F6D696E5E
:10275000672042756D702044697669736F72203C02
:1027600020310A000202040000A0400000A0400046
:10277000000040000048430000484300003443FF8D
:10278000FFFF4D36303020486F74656E6420746FE3
:102790006F20636F6C6420746F206368616E67657F
:1027A0002066696C616D656E740A00202863616C37
:1027B00063756C6174656429210A0020213D200045
:1027C000454550524F4D20435243206D69736D6112
:1027D000746368202D202873746F7265642920004B
:1027E000290A002062797465733B206372632000BC
:1027F0002073746F7265642073657474696E677397
:1028000020726574726965766564202800204D61C8
:10281000726C696E3D563439290A0028454550527C
:102820004F4D3D00454550524F4D207665727369BE
:102830006F6E206D69736D6174636820005265630B
:10284000656976696E67204672616D6520284D6501
:10285000617375726573290041445669332B2B20CF
:102860004C43442076657273696F6E203D20004CA6
:102870004344204669726D776172652072617720EA
:1028800076657273696F6E203D2000556E6B6E6FBA
:10289000776E00526563656976696E67204672617E
:1028A0006D65202856657273696F6E2900526561E7
:1028B00064696E6720546F75636850616E656C461D
:1028C0006C6167005761697420756E74696C20745F
:1028D0006865207461726765742074656D70206925
:1028E0007320726561636865642E2E2E004739324D
:1028F000204530004D38330041646A7573743A20C6
:102900006F6C64203D20002C2065787065637465D1
:1029100064203D20002C206D656173757265642014
:102920003D20002C206E6577203D200052656365B8
:102930006976696E67204672616D65202854617200
:102940006765742054656D70657261747572652970
:10295000000D0A55534220626175647261746520EE
:10296000737769746368656420746F2000537769B6
:1029700074636820555342206261756472617465A6
:1029800020746F200048617264636F646564204442
:10299000656661756C742053657474696E67732025
:1029A0004C6F616465640A00E8030000E8030000FE
:1029B00064000000E80300000000E1430000E14380
:1029C0000000A0400000C8410000A0420000A0425A
:1029D0000000C8430000BA4220204D383531205A4B
:1029E000005A2D50726F6265204F666673657420C1
:1029F000286D6D293A0A0020440020490020204D0E
:102A00003330312050005049442073657474696E2E
:102A100067733A0A00205A0020590020204D3230B6
:102A200036205800486F6D65206F66667365743A8E
:102A30000A00204500205A0020590020580020425A
:102A40000020540020204D32303520530041647660
:102A5000616E6365643A20533C6D696E5F666565BF
:102A600064726174653E20543C6D696E5F7472617E
:102A700076656C5F66656564726174653E20423C94
:102A80006D696E5F7365676D656E745F74696D65A2
:102A90005F75733E20583C6D61785F78795F6A6539
:102AA000726B3E205A3C6D61785F7A5F6A65726B2B
:102AB0003E20453C6D61785F655F6A65726B3E0ADA
:102AC0000020540020520020204D3230342050008D
:102AD000416363656C65726174696F6E2028756E01
:102AE0006974732F7332293A20503C7072696E7486
:102AF0005F616363656C3E20523C72657472616312
:102B0000745F616363656C3E20543C7472617665EA
:102B10006C5F616363656C3E0A00204500205A00CB
:102B200020590020204D3230312058004D61786905
:102B30006D756D20416363656C65726174696F6E5C
:102B40002028756E6974732F7332293A0A00204564
:102B500000205A0020590020204D323033205800E8
:102B60004D6178696D756D20666565647261746527
:102B7000732028756E6974732F73293A0A002045F3
:102B800000205A0020590020204D3932205800538F
:102B9000746570732070657220756E69743A0A00EE
:102BA00020204D3230302044300A0020204D323079
:102BB000302044002044697361626C65640A0046F9
:102BC000696C616D656E742073657474696E67738A
:102BD0003A002020473231202020203B20556E69CA
:102BE000747320696E206D6D0A00206669727374BB
:102BF0000A005A0059005800486F6D652000535470
:102C00004154555320563A200053706F6E736F72C3
:102C10006564206279204A6F686E617468616E2015
:102C20004368616D6265726C61696E0042617365D3
:102C300064206F6E2041445669332B2B2C20436F48
:102C400070797269676874202843292032303137DF
:102C50002053656261737469656E20416E647269A8
:102C6000766574007A5F6D696E3A2000795F6D69F0
:102C70006E3A2000785F6D696E3A20005265706F81
:102C80007274696E6720656E6473746F70207374FC
:102C9000617475730A00526573656E643A20006F43
:102CA0006B00E2DBA1DB11241FBECFEFD1E2DEBF60
:102CB000CDBF00E00CBF13E0A0E0B2E0E4E0FBED2C
:102CC00001E00BBF02C007900D92AC3AB107D9F7F3
:102CD00024E1ACEAB3E001C01D92AB3BB207E1F7DF
:102CE00016E1C2E5D6E100E006C021970109802F78
:102CF000FE010E9407ECC135D10780E00807A9F763
:102D00000E9432D70C9471ED0C9400004F925F92A8
:102D10006F927F928F929F92AF92BF92CF92DF92EB
:102D2000EF92FF920F931F93CF93DF93CDB7DEB750
:102D3000CD52D3400FB6F894DEBF0FBECDBFC0500A
:102D4000DD4F1882C050D34084EF9DE00E94A078F0
:102D5000039714F40C94063061E0CE018F5F9D4F11
:102D60000E9462A681110CC069E579E0CE0101964E
:102D70000E948F62CE0101960E948A620C940630F6
:102D80008091341281110BC068E179E0CE01019687
:102D90000E948F62CE0101960E948A6208C04AE0BA
:102DA00050E060E070E08DE192E10E94F6A8CF5D16
:102DB000DC4F1882C152D340C15EDC4F19821882A9
:102DC000CF51D3401982BE016F5F7F4FCE018F5F1D
:102DD0009D4F0E94E1A51A821982BE016F5F7F4F4D
:102DE000CE018F5F9D4F0E9418A6C980DA80BE0178
:102DF0006F5D7C4FCE018F5F9D4F0E94E1A5BE01AC
:102E0000615E7C4F0E9418A6C15EDC4FE880F980AD
:102E1000CF51D3406BE479E0CE0101960E948F62DE
:102E200069E379E0CE018F5F9C4F0E948F6264E37B
:102E300079E0CE01895F9C4F0E948F62CE01895F4D
:102E40009C4F0E948A62CE018F5F9C4F0E948A62D3
:102E5000CE0101960E948A6202E1C01604E0D0060B
:102E600011F40C94EC2408F085C028E0C21624E08C
:102E7000D20609F466C608F042C043E0C41644E036
:102E8000D40609F460C328F5C11484E0D80609F417
:102E90000FC188F4ACE1CA16A3E0DA0611F00C9475
:102EA000CF2F0E943760F092D712E092D6120E9484
:102EB000EA5F0C940630B1E0CB16B4E0DB0609F40F
:102EC00068C1E2E0CE16E4E0DE0609F4F0C20C943C
:102ED000CF2FF5E0CF16F4E0DF0609F4B1C408F413
:102EE00064C316E0C11614E0D10609F418C527E042
:102EF000C21624E0D20609F4F2C50C94CF2F3DE0AF
:102F0000C31634E0D30611F40C940C22C8F45AE032
:102F1000C51654E0D50611F40C943B2008F43BC7C9
:102F20009BE0C91694E0D90611F40C944321ACE05F
:102F3000CA16A4E0DA0611F40C94D3210C94CF2F16
:102F4000BFE0CB16B4E0DB0611F40C94F32210F4CE
:102F50000C94F721F0E1CF16F4E0DF0611F40C94A5
:102F6000752301E1C01604E0D00611F40C94C224CC
:102F70000C94CF2F1CE1C11614E0D10611F40C946F
:102F80000A2FE0F537E1C31634E0D30611F40C94B0
:102F9000B52CD0F454E1C51654E0D50611F40C94C8
:102FA000E12610F40C94F32595E1C91694E0D906B6
:102FB00011F40C94D927A6E1CA16A4E0DA0611F49C
:102FC0000C942B2A0C94CF2FB9E1CB16B4E0DB067E
:102FD00011F40C94862E10F40C94692EFAE1CF169D
:102FE000F4E0DF0611F40C94AC2E0BE1C01604E003
:102FF000D00611F40C94DA2E0C94CF2F12E2C116E5
:1030000014E0D10611F40C94672F10F53EE1C316BD
:1030100034E0D30611F40C94382F10F40C941F2FC5
:1030200050E2C51654E0D50611F40C94552F81E2F8
:10303000C81684E0D80611F00C94CF2F46E950E072
:1030400060E070E081E392E00E94FD5D0C94063048
:1030500095E2C91694E0D90611F40C94702FC0F4CF
:10306000B3E2CB16B4E0DB0611F40C945E2FE4E27D
:10307000CE16E4E0DE0611F00C94CF2F4AE050E0CB
:1030800060E070E08EEE91E00E94FD5D0C940630F1
:10309000F6E2CF16F4E0DF0611F40C94A42F07E259
:1030A000C01604E0D00611F40C94792F0C94CF2FA5
:1030B00013E0E116F10409F440C030F431E0E31606
:1030C000F10441F1B0F031C055E0E516F10409F426
:1030D00044C0D8F196E0E916F10409F446C0EF20A7
:1030E000E09409F04AC08CE092E10E94ECA10C94BB
:1030F00006308091560F9091570F0197029710F468
:103100000C94DA2F41E066E58CE092E10E946BA01E
:103110000C9406308091560F9091570F01970297AB
:1031200010F40C94DA2F0C94E12F41E068E18CE06C
:1031300092E10E946BA00C94063041E06AE18CE0C1
:1031400092E10E946BA00C94063041E06CE18CE0AF
:1031500092E10E946BA00C94063041E068E58CE09F
:1031600092E10E946BA00C94063041E06EE38CE08B
:1031700092E10E946BA00C94063068EE78E0CE01DC
:1031800001960E948F62CE0101960E948A620C9481
:10319000063080914F11882309F4A7C0B1E0EB16E7
:1031A000F10409F44CC078F0F2E0EF16F10409F4F0
:1031B0006EC0EF20E09409F08CC08CE092E10E9498
:1031C000ECA10C9406306AED78E0CE0101960E94E5
:1031D0008F62CE0101960E948A620E9408920E942C
:1031E0009B4E0E94C6AC0E9413920E94C580109212
:1031F000F9031092F8038CE092E10E94ECA18EEAB0
:103200009DE99A8389831C821B82AE014F5F5F4FC9
:103210006CE072E1CE018F5F9C4F0E949FAB44EF48
:1032200051E0BE016F5F7C4F85E392E10E94CC9D2F
:10323000CE018F5F9C4F0E94EDAB0C9406306EEC7C
:1032400078E0CE0101960E948F62CE0101960E9425
:103250008A626CEB78E0CE0101960E948F62CE010B
:1032600001960E9402AACE0101960E948A621092E3
:10327000810F86E59FE00E947A6787EB98E0909344
:10328000A8068093A7060E94A24E0C9406306AEA14
:1032900078E0CE0101960E948F62CE0101960E94D5
:1032A0008A626AE978E0CE0101960E948F62CE01BF
:1032B00001960E9402AACE0101960E948A6286E9C6
:1032C00098E09093A8068093A7060E94A24E0C94C3
:1032D000063063E878E0CE0101960E948F62CE014D
:1032E00001960E948A620C94063011E0E116F10406
:1032F00009F46BC078F032E0E316F10409F49AC0E7
:10330000EF20E09409F0C7C08CE092E10E94ECA1AC
:103310000C94063064E778E0CE0101960E948F623B
:10332000CE0101960E948A6266E973E085E292E12D
:103330000E94606266E973E08BE292E10E94606243
:103340008FEF9FEF90933212809331120E949B4E29
:103350000E94C6AC0E9413920E94C5801092F9038D
:103360001092F803EFE5F8E084918F010F5F1F4F93
:10337000882339F0082E000C990B0E947191F801F6
:10338000F3CF8CE092E10E94ECA18EEA9DE99A8352
:1033900089831C821B82AE014F5F5F4F6CE072E13C
:1033A000CE018F5F9C4F0E949FAB44EF51E0BE0166
:1033B0006F5F7C4F85E392E10E94CC9DCE018F5FD1
:1033C0009C4F0E94EDAB0C9406306FE478E0CE0188
:1033D00001960E948F62CE0101960E948A626DE37F
:1033E00078E0CE0101960E948F62CE0101960E9484
:1033F00002AACE0101960E948A6286E59FE00E94A1
:103400007A6788E398E09093A8068093A7060E94C5
:10341000A24EE8E2F8E084918F010F5F1F4F8823EE
:1034200011F40C940630082E000C990B0E94719137
:10343000F801F1CF6BE178E0CE0101960E948F6236
:10344000CE0101960E948A626BE078E0CE0101967F
:103450000E948F62CE0101960E9402AACE010196BF
:103460000E948A6287E098E09093A8068093A7065E
:103470000E94A24EE6EFF7E084918F010F5F1F4F8D
:10348000882311F40C940630082E000C990B0E942E
:103490007191F801F1CF63EE77E0CE0101960E94C1
:1034A0008F62CE0101960E948A620C9406305EEF14
:1034B000E5165FEFF506F9F0EF20E094C1F5809195
:1034C000191290911A12892B61F46CEC77E0CE01FD
:1034D00001960E948F62CE0101960E948A620C942E
:1034E000063089E192E10E94CAAB89E192E10E9433
:1034F0002DAA0C94063080911B1290911C12892BDE
:1035000061F461EB77E0CE0101960E948F62CE01FB
:1035100001960E948A620C9406308BE192E10E942F
:10352000CAAB8BE192E10E942DAA0C9406306EE9A1
:1035300077E0CE0101960E948F62CE0101960E9433
:103540008A620C94063091E0E916F104C1F068F04B
:10355000B2E0EB16F104C1F0EF20E094D1F48CE07E
:1035600092E10E9416A20C9406300E94DAC241E059
:103570006EE18CE092E10E946BA00C94063081E039
:103580000E94B9C30C94063080E00E94B9C30C9429
:1035900006306BE877E0CE0101960E948F62CE0183
:1035A00001960E948A620C940630F4E0EF16F10452
:1035B000C0F401E0E016F10408F059C06EE777E0CE
:1035C000CE0101960E948F62CE0101960E948A620E
:1035D0006FE173E0CE0101960E943E9C0AE512E184
:1035E00011C01AEAE116F10609F40EC1EF20E094C9
:1035F00009F01AC180916612909167120E94ECA1A5
:103600000C940630D8018D919C911197C95FDC4FC5
:1036100099838883C750D34012968D919C911397BC
:10362000CF5FDC4F99838883C150D340BE016F5F69
:103630007C4FCE0101960E94D5A7BE01695F7C4FE9
:103640000E94D5A70C5F1F4FB2E106361B07D1F6CB
:1036500061E0CE0101960E945DA741E064E28091A5
:103660006612909167120E946BA00C94063060E77E
:1036700077E0CE0101960E948F62CE0101960E94F2
:103680008A6246E06FE173E0CE0101960E940E9CD3
:10369000CE0101960E946C9B81110EC066E577E019
:1036A000CE018F5F9C4F0E948F62CE018F5F9C4F37
:1036B0000E948A620C940630C35FDC4F1982188224
:1036C000CD50D340C95FDC4F19821882C750D34018
:1036D0000AE512E120E0BE01695F7C4FCE01019650
:1036E000C35DDC4F2883CD52D3400E9418A6BE0193
:1036F000635F7C4F0E9418A6C35FDC4F888199816D
:10370000CD50D340F80140815181C35DDC4F288109
:10371000CD52D3408417950759F4C95FDC4F6881B7
:103720007981C750D340428153816417750709F0EE
:1037300021E0D80111969C938E93C95FDC4F88815C
:103740009981C750D34013969C938E9312970C5F28
:103750001F4FB2E106361B0709F0BDCF21110E94B1
:1037600065A3E1E0EE1AF10866E973E0CE018F5F30
:103770009C4F0E9497626FE477E0CE018F5F9C4F71
:103780000E941B62C701880F991F880F991F8C0127
:10379000045F1D4EF801E25BFF4F60817181CE0135
:1037A0008F5F9C4F0E948661CF5FDC4F888199813B
:1037B000C150D3400E94C19268E477E0CE018F5F90
:1037C0009C4F0E941B62F801E05BFF4F608171819A
:1037D000CE018F5F9C4F0E948661CF5FDC4F888156
:1037E0009981C150D3400E94C19241E066E5809129
:1037F0006612909167120E946BA0CE018F5F9C4F62
:103800000E948A620C9406306FE377E0CE01019645
:103810000E948F62CE0101960E948A620E94FAA9DC
:103820000E94C5800C9406306CE277E0CE010196D0
:103830000E948F62CE0101960E948A620C9406302B
:10384000F3E0EF16F104A9F188F411E0E116F104B8
:10385000E1F028F50E94DA670E94FBB541E066E2DC
:103860008CE092E10E946BA00C94063035E0E316E8
:10387000F10499F140F1EF20E09409F044C08CE0AC
:1038800092E10E94ECA10C94063085E297E09093BF
:10389000A8068093A7060E94A24E0C9406308EE1E3
:1038A00097E09093A8068093A7060E94A24E0C94DE
:1038B000063087E197E09093A8068093A7060E94C0
:1038C000A24E0C94063083E197E09093A806809373
:1038D000A7060E94A24E0C9406308FE097E09093CA
:1038E000A8068093A7060E94A24E1092F70310929A
:1038F000F6031092F5031092F4031092F303109262
:10390000F2030C9406306CEF76E0CE0101960E9433
:103910008F62CE0101960E948A620C940630E114F7
:1039200080E8F806D1F040F4A1E0EA1AF108B5E029
:10393000EB16F104E8F1C7C0E1E0EE16E0E8FE06A0
:1039400041F1EF20E09409F0BEC0809158129091AF
:1039500059120E94ECA10C9406308091820F8823AA
:1039600011F40C94063080915612909157120596DE
:1039700020915412309155128217930720F490939E
:1039800057128093561284E592E10E948A9F0C940C
:1039900006308091820F882311F40C9406308091B8
:1039A0005612909157128530910568F30597E7CF2D
:1039B0008091820F882311F40C9406308091561266
:1039C000909157128E159F0510F40C94063060E00C
:1039D00070E08E199F090E94BD948091830F811120
:1039E0000C9406308091910F882319F061E97FE0F3
:1039F00002C064E87FE0CE01895F9C4F0E9497621D
:103A0000C55FDC4F88819981CB50D340892B09F465
:103A100053C0BE01695F7C4F85E292E10E947562EE
:103A200066E973E08BE292E10E9460628FEF9FEFA4
:103A3000909332128093311269E671E0CE010196C3
:103A40000E943E9C20E04AE150E0BE01695F7C4F4D
:103A5000CE018F5F9C4F0E9485A8BE016F5F7C4F97
:103A6000CE0101960E94D4A7CE018F5F9C4F0E9489
:103A70008A6261E0CE0101960E945DA740E061E0AC
:103A800084E89FE00E94B8578091820F882319F044
:103A900081E08093810F0E945CC341E06AE28091E3
:103AA0005812909159120E946BA0CE01895F9C4FD1
:103AB0000E948A620C940630CE01895F9C4F0E945E
:103AC0008A620C94063069EE76E0CE0101960E947F
:103AD0008F62CE0101960E948A620C94063001E04A
:103AE000E016F10491F048F0EF20E094F1F48CE05E
:103AF00092E10E94ECA10C94063041E062E48CE07B
:103B000092E10E946BA00C94063084EE96E09093B4
:103B1000A8068093A7060E94A24E0E94475E8CE0F2
:103B200092E10E94ECA10C94063061ED76E0CE01AA
:103B300001960E948F62CE0101960E948A620C94C7
:103B4000063033E0E316F10409F4ADC008F04AC0D2
:103B500051E0E516F10409F45EC008F080C041E0D0
:103B600067EC76E08CE092E10E94A7A21092F70346
:103B70001092F6031092F5031092F4031092F303DF
:103B80001092F20383EC96E09093A8068093A70628
:103B90000E94A24E8FEB96E09093A8068093A70612
:103BA0000E94A24E8DE391EA9A8389831C821B8234
:103BB000AE014F5F5F4F6CE072E1CE018F5F9C4FB3
:103BC0000E949FAB48EC50E0BE016F5F7C4F85E3E5
:103BD00092E10E94CC9DCE018F5F9C4F0E94EDAB85
:103BE0000C94063095E0E916F10409F4A4C008F439
:103BF0007EC0EF20E09409F0C2C089E995E090937F
:103C0000A8068093A7060E94A24E8CE092E10E9433
:103C1000ECA10C94063062EB76E0CE0101960E9496
:103C20008F62CE0101960E948A6285EA96E09093A7
:103C3000A8068093A7060E94A24E84E996E090937E
:103C4000A8068093A7060E94A24E88E896E090936B
:103C5000A8068093A7060E94A24E0C9406306BE73C
:103C600076E0CE0101960E948F62CE0101960E94FD
:103C70008A628EE696E09093A8068093A7060E943B
:103C8000A24E8BE596E09093A8068093A7060E942B
:103C9000A24E8FE496E09093A8068093A7060E9418
:103CA000A24E0C94063062E476E0CE0101960E94AA
:103CB0008F62CE0101960E948A6285E396E090931E
:103CC000A8068093A7060E94A24E83E296E09093F6
:103CD000A8068093A7060E94A24E87E196E09093E3
:103CE000A8068093A7060E94A24E0C9406306AE0B4
:103CF00076E0CE0101960E948F62CE0101960E946D
:103D00008A628DEF95E09093A8068093A7060E94A3
:103D1000A24E8BEE95E09093A8068093A7060E9492
:103D2000A24E8FED95E09093A8068093A7060E947F
:103D3000A24E0C94063062ED75E0CE0101960E9411
:103D40008F62CE0101960E948A6285EC95E0909385
:103D5000A8068093A7060E94A24E82EB95E090935E
:103D6000A8068093A7060E94A24E86EA95E090934B
:103D7000A8068093A7060E94A24E0C94063066E81F
:103D800075E0CE0101960E948F62CE0101960E94DD
:103D90008A620C940630E1E0EE16F10409F453C097
:103DA00050F102E0E016F10409F482C0EF20E09443
:103DB00009F055C182E592E10E942DAA1092E81304
:103DC0001092E71380E00E9446808BE195E090938B
:103DD000A8068093A7060E94A24E84E195E09093E6
:103DE000A8068093A7060E94A24E8CE092E10E9452
:103DF000ECA10C9406300E94DAC260E175E0CE01BD
:103E000001960E943E9C88EC90E0CF5FDC4F998346
:103E10008883C150D340BE016F5F7C4FCE010196B5
:103E20000E94D5A761E0CE0101960E945DA78CE0BB
:103E300092E10E9463A041E062E38CE092E10E9483
:103E40006BA00C9406300E9496C28C01892B11F451
:103E50000C94063041E06EE675E08CE092E10E9441
:103E6000A7A21093E8130093E71380E00E94468016
:103E700088EE9DE99A8389831C821B82AE014F5F85
:103E80005F4F6CE072E1CE018F5F9C4F0E949FAB51
:103E900044EF51E0BE016F5F7C4F85E392E10E94E9
:103EA000CC9DCE018F5F9C4F0E94EDAB0C940630F1
:103EB00041E060E175E0CE0101960E940E9CCE01CA
:103EC00001960E946C9B81110EC063E575E0CE01E6
:103ED0008F5F9C4F0E948F62CE018F5F9C4F0E942C
:103EE0008A620C940630C75EDC4F19821882C95171
:103EF000D340BE01675E7C4FCE0101960E9418A69A
:103F0000C75EDC4F88819981C951D3406AE070E077
:103F10000E94C4EB8B01C75EDC4F79836883C95173
:103F2000D34080917E0490917F04A0918004B09151
:103F300081048093741290937512A0937612B093BB
:103F400077128091820490918304A0918404B091AF
:103F500085048093781290937912A0937A12B0938B
:103F60007B128091860490918704A0918804B0917F
:103F7000890480937C1290937D12A0937E12B0935B
:103F80007F12C090EB12D090EC12E090ED12F09006
:103F9000EE1220918A0430918B0440918C04509150
:103FA0008D04C701B6010E9409E54B015C0120E0C8
:103FB00030E040EA51E4C701B6010E94FCE86B0121
:103FC0007C01B80180E090E00E94A8E49B01AC0174
:103FD000C701B6010E94FBE89B01AC01C501B40119
:103FE0000E94D8E9609380127093811280938212AC
:103FF000909383126AE475E0CE018D5E9C4F0E941F
:104000008F626CE375E0CE01835F9C4F0E948F62EC
:104010006EE275E0CE01895F9C4F0E948F626FE176
:1040200075E0CE018F5F9C4F0E948F62CE018F5F43
:104030009C4F0E948A62CE01895F9C4F0E948A62D7
:10404000CE01835F9C4F0E948A62CE018D5E9C4FA1
:104050000E948A6280E00E94515E0C94063061E00A
:1040600075E0CE0101960E948F62CE0101960E94FA
:104070008A620C94063022E0E216F10409F444C08E
:104080003FEFE316F30609F4ECC0EF2809F0EFC0A8
:1040900060E175E0CE0101960E943E9C88EC90E0C4
:1040A000C35FDC4F99838883CD50D340C95FDC4F19
:1040B00099838883C750D340CF5FDC4F998388832F
:1040C000C150D340BE016F5F7C4FCE0101960E946C
:1040D000D5A7BE01695F7C4F0E94D5A7BE01635F73
:1040E0007C4F0E94D5A761E0CE0101960E945DA79A
:1040F0008CE092E10E9463A041E068E38CE092E1F1
:104100000E946BA00C94063043E060E175E0CE01A4
:1041100001960E940E9CCE0101960E946C9B81111B
:104120000EC066EE74E0CE018F5F9C4F0E948F62DE
:10413000CE018F5F9C4F0E948A620C940630C35F51
:10414000DC4F19821882CD50D340C95FDC4F1982F1
:104150001882C750D340CF5FDC4F19821882C150FC
:10416000D340BE01635F7C4FCE0101960E9418A62A
:10417000BE01695F7C4F0E9418A6BE016F5F7C4F35
:104180000E9418A6C35FDC4F68817981CD50D3406F
:1041900080E090E00E94A8E49B01AC0160917E0465
:1041A00070917F0480918004909181040E9409C3E2
:1041B00060937412709375128093761290937712B5
:1041C000C95FDC4F68817981C750D34080E090E0BF
:1041D0000E94A8E49B01AC01609182047091830469
:1041E00080918404909185040E9409C360937812A1
:1041F0007093791280937A1290937B12CF5FDC4F89
:1042000068817981C150D34080E090E00E94A8E4A9
:104210009B01AC01609186047091870480918804B1
:10422000909189040E9409C360937C1270937D125F
:1042300080937E1290937F1280918A0490918B04D8
:10424000A0918C04B0918D04809380129093811280
:10425000A0938212B093831280E00E94515E0C946E
:1042600006308CE092E10E94ECA10C94063063EDE4
:1042700074E0CE0101960E948F62CE0101960E94E9
:104280008A620C94063041E0E416F10409F449C056
:1042900050F0EF20E09409F07AC08CE092E10E94A7
:1042A000ECA10C9406308091720490917304A0915B
:1042B0007404B09175048093681290936912A0936E
:1042C0006A12B0936B128091760490917704A0915A
:1042D0007804B091790480936C1290936D12A0933E
:1042E0006E12B0936F1280917A0490917B04A0912A
:1042F0007C04B0917D048093701290937112A0930E
:104300007212B09373120E94DAC28CE092E10E94A2
:1043100063A041E06AE38CE092E10E946BA00C9400
:1043200006300E9496C28C01892B11F40C94063041
:1043300089EC94E09093A8068093A7060E94A24E71
:1043400066E973E0CE0101960E94976262EC74E028
:10435000CE0101960E942A61B801CE0101960E9409
:10436000866169EB74E0CE0101960E942A61898121
:104370009A810E94C19241E06CE38CE092E10E943C
:104380006BA0CE0101960E948A620C94063066EA08
:1043900074E0CE0101960E948F62CE0101960E94C8
:1043A0008A620C9406309EEFE9169FEFF90611F42D
:1043B0000C94063050F4EF2871F441E06CE58CE089
:1043C00092E10E946BA00C9406308CE092E10E9476
:1043D000ECA10C94063063E974E0CE0101960E94D2
:1043E0008F62CE0101960E948A620C940630EF2003
:1043F000E09431F48CE092E10E94ECA10C94063040
:1044000060E874E0CE0101960E948F62CE010196B1
:104410000E948A620C940630E2E0EE16F10409F480
:1044200050C0A8F4E114F10461F1EA94EF2809F016
:10443000CEC08091CA129091CB1242E08427909313
:10444000CB128093CA120E944A600C9406301EEF71
:10445000E1161FEFF10609F49AC008F0A2C033E09C
:10446000E316F10409F0B3C04091CC125091CD1283
:104470006091CE127091CF12EFE3F2E080E090E015
:1044800058C08091CC129091CD12A091CE12B091D3
:10449000CF128093D0129093D112A093D212B093E6
:1044A000D3120E9435C20E944A608CE092E10E94C1
:1044B00063A041E06AE58CE092E10E946BA00C945D
:1044C00006304091CC125091CD126091CE12709175
:1044D000CF12EFE3F2E080E090E0019111912191A1
:1044E0003191401751076207730719F4009751F48F
:1044F00004C001968730910581F780E895E2A0E03D
:10450000B0E00BC0880F991F880F991FFC01E55C74
:10451000FD4F80819181A281B3818093CC129093D1
:10452000CD12A093CE12B093CF120E9435C20C943C
:104530000630019111912191319140175107620785
:10454000730741F48630910559F480E990EDA3E0BA
:10455000B0E011C001968730910559F780E090E0F6
:10456000880F991F880F991FFC01ED5BFD4F80811B
:104570009181A281B3818093CC129093CD12A093AC
:10458000CE12B093CF120E9435C20C9406300E9416
:10459000475E8CE092E10E94ECA10E94EDC10C9478
:1045A00006308091D0129091D112A091D212B09188
:1045B000D3128093CC129093CD12A093CE12B093CD
:1045C000CF128CE092E10E94ECA10C9406306DE6D3
:1045D00074E0CE0101960E948F62CE0101960E9486
:1045E0008A620C94063052E0E516F104D9F1F0F439
:1045F000E114F10449F1EA94EF2809F06AC08091CE
:10460000CA129091CB12E4E08E279093CB12809344
:10461000CA1282FB882780F98093D4120E943760E7
:104620000E944A600E94475E0C940630A3E0EA169E
:10463000F10469F1EF20E09409F04BC08CE092E1C5
:104640000E94ECA10C9406300E944A608CE092E13A
:104650000E9463A041E060E68CE092E10E946BA0C2
:104660000C9406308091CA129091CB12F8E08F27FB
:104670009093CB128093CA1283FB882780F9809392
:1046800033120E944A600E94475E0C94063080916B
:10469000CA129091CB1200E180279093CB128093A5
:1046A000CA1234E0969587953A95E1F78170809328
:1046B0003412882341F042E350E060E070E08DE185
:1046C00092E10E94F6A80E944A600E94475E0C9404
:1046D00006306AE574E0CE0101960E948F62CE0139
:1046E00001960E948A620C940630E114F10451F0A4
:1046F000EF20E09409F03AC18CE092E10E94ECA135
:104700000C940630A090640FB090650F8090660FF7
:104710009090670FE090680FF090690F00916A0F1A
:1047200010916B0FCE5DDC4FE882F9820A831B8308
:10473000C252D34040906C0F50906D0F60906E0F3E
:1047400070906F0FC090700FD090710FE090720F4B
:10475000F090730F61E871E0CE0101960E943E9CDB
:10476000C95FDC4F99828882C750D340CF5FDC4F4E
:10477000B982A882C150D340BE016F5F7C4FCE0189
:1047800001960E94D5A7BE01695F7C4F0E94D5A704
:1047900061E0CE0101960E945DA78AE5A82EA9825C
:1047A00095EAB92EBA8211E01B8324E0922EC05004
:1047B000DF4F9882C050D14083E891E0CF5FDC4F5B
:1047C00099838883C150D340BE016F5F7C4FCE0177
:1047D00001960E94D5A700E020E130E0CE5DDC4FDD
:1047E000488159816A817B81C252D340CE018F5F5B
:1047F0009C4F0E9445A8BE016F5F7C4FCE01019681
:104800000E94D4A7CE018F5F9C4F0E948A6261E014
:10481000CE0101960E945DA7A982BA821B83C05077
:10482000DF4F9882C050D1408BE891E0CF5FDC4FE2
:1048300099838883C150D340BE016F5F7C4FCE0106
:1048400001960E94D5A720E130E0B301A201CE017C
:104850008F5F9C4F0E9445A8BE016F5F7C4FCE01C9
:1048600001960E94D4A7CE018F5F9C4F0E948A625E
:1048700061E0CE0101960E945DA766E973E0CE017A
:10488000895F9C4F0E94976220E030E04AE754E441
:10489000C701B6010E94D8E90E9445EACE01895FAE
:1048A0009C4F0E94866160EF72E0CE01895F9C4F51
:1048B0000E94E46120E030E048EC52E4C701B60118
:1048C0000E94D8E90E9445EACB016AE070E00E94AC
:1048D000C4EBBC01CE01895F9C4F0E94866161EEF2
:1048E00072E0CE01895F9C4F0E94E461A982BA8286
:1048F0001B83C050DF4F9882C050D14083E991E0C4
:10490000CF5FDC4F99838883C150D340BE016F5F76
:104910007C4FCE0101960E94D5A720E040E150E0F7
:10492000BE01695F7C4FCE018F5F9C4F0E9485A8BE
:10493000BE016F5F7C4FCE0101960E94D4A7CE01CD
:104940008F5F9C4F0E948A6261E0CE0101960E94B7
:104950005DA7CE01895F9C4F0E948A6241E064E4BA
:104960008CE092E10E946BA00C94063067E474E046
:10497000CE0101960E948F62CE0101960E948A624A
:104980000C94063001E0E016F10491F048F0EF20BD
:10499000E094B1F48CE092E10E94ECA10C9406301A
:1049A00041E066E48CE092E10E946BA00C9406303A
:1049B00040E066E18CE092E10E946BA00C9406302E
:1049C00064E374E0CE0101960E948F62CE010196ED
:1049D0000E948A620C9406303EEFE3163FEFF30626
:1049E00009F464C008F0EDC0EF2809F0F0C067E0FA
:1049F00073E0CE0101960E943E9C2091F803309115
:104A0000F90344E6429FC001439F900D11246FEFCC
:104A100070E00E94D8EBCD5EDC4F79836883C35190
:104A2000D3408091F0039091F103C35FDC4F9983F1
:104A30008883CD50D3408091E7139091E813C95FEC
:104A4000DC4F99838883C750D340809100029091B6
:104A50000102CF5FDC4F99838883C150D340BE01F0
:104A60006F5F7C4FCE0101960E94D5A7BE01695FA2
:104A70007C4F0E94D5A7BE01635F7C4F0E94D5A7E3
:104A8000BE016D5E7C4F0E94D5A761E0CE0101960C
:104A90000E945DA78CE092E10E9463A041E060E586
:104AA0008CE092E10E946BA00C94063044E067E039
:104AB00073E0CE0101960E940E9CCE0101960E94E9
:104AC0006C9B81110EC063E174E0CE018F5F9C4F3F
:104AD0000E948F62CE018F5F9C4F0E948A620C946D
:104AE0000630CD5EDC4F19821882C351D340C35FBC
:104AF000DC4F19821882CD50D340C95FDC4F198238
:104B00001882C750D340CF5FDC4F19821882C15042
:104B1000D340BE016D5E7C4FCE0101960E9418A667
:104B2000BE01635F7C4F0E9418A6BE01695F7C4F87
:104B30000E9418A6BE016F5F7C4F0E9418A6CD5E32
:104B4000DC4F88819981C351D340909301028093B7
:104B50000002C35FDC4F88819981CD50D340909390
:104B6000E8138093E71380E00E944680C95FDC4F22
:104B700088819981C750D3408739910514F086E91F
:104B800090E09093F1038093F0030E94FC7FCF5F4D
:104B9000DC4F28813981C150D3404FEF429FC00183
:104BA000439F900D112464E670E00E94D8EB70934F
:104BB000F9036093F8038CE092E10E945EA20C94EA
:104BC00006308CE092E10E94ECA10C94063060E08B
:104BD00074E0CE0101960E948F62CE0101960E9480
:104BE0008A620C9406305EEFE5165FEFF50659F029
:104BF00008F0A3C0EF2809F0D8C061E081E00E946E
:104C00002C5F0C94063043E064E073E0CE01019623
:104C10000E940E9CCE0101960E946C9B81110EC0D9
:104C200061EE73E0CE018F5F9C4F0E948F62CE01D8
:104C30008F5F9C4F0E948A620C940630C35FDC4FEA
:104C400019821882CD50D340C95FDC4F1982188277
:104C5000C750D340CF5FDC4F19821882C150D34078
:104C6000BE01635F7C4FCE0101960E9418A6BE0173
:104C7000695F7C4F0E9418A6BE016F5F7C4F0E9447
:104C800018A6C35FDC4F68817981CD50D34080E0A6
:104C900090E00E94A8E420E030E048EC52E40E945A
:104CA000D8E96093720470937304809374049093B2
:104CB0007504C95FDC4F68817981C750D34080E0BB
:104CC00090E00E94A8E420E030E048EC52E40E942A
:104CD000D8E92CEA35EC47E25EE30E9409E56093EF
:104CE0007604709377048093780490937904CF5F6F
:104CF000DC4F68817981C150D34080E090E00E9410
:104D0000A8E420E030E048EC52E40E94D8E92CEA24
:104D100035EC47E25EE30E94D8E960937A04709331
:104D20007B0480937C0490937D040E94475E8CE01A
:104D300092E10E945EA20C940630809168129091DC
:104D40006912A0916A12B0916B12809372049093D1
:104D50007304A0937404B093750480916C129091C5
:104D60006D12A0916E12B0916F12809376049093A1
:104D70007704A0937804B093790480917012909195
:104D80007112A0917212B091731280937A04909371
:104D90007B04A0937C04B0937D040E9465A38CE007
:104DA00092E10E94ECA10C9406306EEC73E0CE010F
:104DB00001960E948F62CE0101960E948A620C9435
:104DC00006309EEFE9169FEFF90651F008F0DFC0BC
:104DD000EF2809F0E2C081E00E94515E0C94063099
:104DE00044E060E073E0CE0101960E940E9CCE018B
:104DF00001960E946C9B81110EC06DEA73E0CE019A
:104E00008F5F9C4F0E948F62CE018F5F9C4F0E94EC
:104E10008A620C940630CD5EDC4F19821882C35131
:104E2000D340C35FDC4F19821882CD50D340C95F95
:104E3000DC4F19821882C750D340CF5FDC4F1982F4
:104E40001882C150D340BE016D5E7C4FCE010196E9
:104E50000E9418A6BE01635F7C4F0E9418A6BE0187
:104E6000695F7C4F0E9418A6BE016F5F7C4F0E9455
:104E700018A6CD5EDC4F68817981C351D34080E0B4
:104E800090E00E94A8E420E030E040E251E40E947B
:104E9000D8E92B013C0160937412709375128093D2
:104EA000761290937712C35FDC4F68817981CD5081
:104EB000D34080E090E00E94A8E420E030E040E2AF
:104EC00051E40E94D8E94B015C0160937812709321
:104ED000791280937A1290937B12C95FDC4F6881BC
:104EE0007981C750D34080E090E00E94A8E420E0A0
:104EF00030E040E251E40E94D8E96B017C0160930C
:104F00007C1270937D1280937E1290937F12CF5FFC
:104F1000DC4F68817981C150D34080E090E00E94ED
:104F2000A8E420E030E040E251E40E94D8E9609338
:104F30008012709381128093821290938312409218
:104F40007E0450927F04609280047092810480926B
:104F5000820490928304A0928404B0928504C0924B
:104F60008604D0928704E0928804F09289046093CA
:104F70008A0470938B0480938C0490938D040E9418
:104F800065A38CE092E10E945EA20C9406308CE056
:104F900092E10E94ECA10C9406306AE973E0CE0124
:104FA00001960E948F62CE0101960E948A620C9443
:104FB0000630BEEFEB16BFEFFB0609F4FBC008F0AE
:104FC0003AC2EF2809F03CC28091E0039091E103DE
:104FD000A091E203B091E303809384129093851231
:104FE000A0938612B09387128091E4039091E50319
:104FF000A091E603B091E703809388129093891201
:10500000A0938A12B0938B128091E8039091E903E8
:10501000A091EA03B091EB0380938C1290938D12D0
:10502000A0938E12B0938F128091EC039091ED03B8
:10503000A091EE03B091EF038093901290939112A0
:10504000A0939212B09393128091DC039091DD03B0
:10505000A091DE03B091DF03809394129093951298
:10506000A0939612B09397128091D8039091D90390
:10507000A091DA03B091DB03809398129093991278
:10508000A0939A12B0939B128CE092E10E9463A0CD
:105090006BE073E0CE0101960E943E9C60919812F5
:1050A0007091991280919A1290919B120E9445EAF8
:1050B000C55EDC4F79836883CB51D34060919412F5
:1050C0007091951280919612909197120E9445EAE4
:1050D000C75EDC4F79836883C951D34060919012D9
:1050E0007091911280919212909193120E9445EAD0
:1050F000CD5EDC4F79836883C351D34060918C12BD
:1051000070918D1280918E1290918F120E9445EABB
:10511000C35FDC4F79836883CD50D34060918812A0
:105120007091891280918A1290918B120E9445EAA7
:10513000C95FDC4F79836883C750D3406091841284
:105140007091851280918612909187120E9445EA93
:10515000CF5FDC4F79836883C150D340BE016F5F5E
:105160007C4FCE0101960E94D5A7BE01695F7C4F9E
:105170000E94D5A7BE01635F7C4F0E94D5A7BE01E8
:105180006D5E7C4F0E94D5A7BE01675E7C4F0E947A
:10519000D5A7BE01655E7C4F0E94D5A761E0CE0118
:1051A00001960E945DA741E06AE48CE092E10E94D2
:1051B0006BA02CC746E06BE073E0CE0101960E9425
:1051C0000E9CCE0101960E946C9B81110DC066E77A
:1051D00073E0CE018F5F9C4F0E948F62CE018F5F84
:1051E0009C4F0E948A6212C7C55EDC4F19821882EA
:1051F000CB51D340C75EDC4F19821882C951D340CE
:10520000CD5EDC4F19821882C351D340C35FDC4F9F
:1052100019821882CD50D340C95FDC4F19821882A1
:10522000C750D340CF5FDC4F19821882C150D340A2
:10523000BE01655E7C4FCE0101960E9418A6BE019C
:10524000675E7C4F0E9418A6BE016D5E7C4F0E9477
:1052500018A6BE01635F7C4F0E9418A6BE01695F5D
:105260007C4F0E9418A6BE016F5F7C4F0E9418A65B
:10527000C55EDC4F68817981CB51D34080E090E0FE
:105280000E94A8E49B01AC01609384127093851284
:105290008093861290938712C75EDC4F6881798174
:1052A000C951D34080E090E0C35DDC4F2883CD52EC
:1052B000D340C65DDC4F3883CA52D340C55DDC4F56
:1052C0004883CB52D340C45DDC4F5883CC52D3408B
:1052D0000E94A8E42B013C0160938812709389120C
:1052E00080938A1290938B12CD5EDC4F6881798116
:1052F000C351D34080E090E00E94A8E44B015C01E0
:1053000060938C1270938D1280938E1290938F12F3
:10531000C35FDC4F68817981CD50D34080E090E05D
:105320000E94A8E46B017C0160939012709391122B
:105330008093921290939312C95FDC4F68817981B8
:10534000C750D34080E090E00E94A8E4CE5DDC4FDF
:10535000688379838A839B83C252D340609394127B
:10536000709395128093961290939712CF5FDC4FB3
:1053700068817981C150D34080E090E00E94A8E428
:10538000609398127093991280939A1290939B1243
:10539000C35DDC4F2881CD52D340C65DDC4F3881E0
:1053A000CA52D340C55DDC4F4881CB52D340C45D67
:1053B000DC4F5881CC52D3402093E0033093E1037B
:1053C0004093E2035093E3034092E4035092E503D9
:1053D0006092E6037092E7038092E8039092E903FB
:1053E000A092EA03B092EB03C092EC03D092ED03DB
:1053F000E092EE03F092EF03CE5DDC4FE880F9809F
:105400000A811B81C252D340E092DC03F092DD039B
:105410000093DE031093DF036093D8037093D903E6
:105420008093DA039093DB030E9465A38CE092E102
:105430000E945EA2EBC58CE092E10E94ECA1E6C561
:1054400063E673E0CE0101960E948F62CE01019661
:105450000E948A62DBC50EEFE0160FEFF00609F43A
:1054600008C108F072C2EF2809F074C28091C80325
:105470009091C903A091CA03B091CB0380939C1271
:1054800090939D12A0939E12B0939F128091CC0393
:105490009091CD03A091CE03B091CF038093A01241
:1054A0009093A112A093A212B093A3128091D00363
:1054B0009091D103A091D203B091D3038093A41211
:1054C0009093A512A093A612B093A7128091D40333
:1054D0009091D503A091D603B091D7038093A812E1
:1054E0009093A912A093AA12B093AB128091C40317
:1054F0009091C503A091C603B091C7038093AC12ED
:105500009093AD12A093AE12B093AF128091C003EE
:105510009091C103A091C203B091C3038093B012D4
:105520009093B112A093B212B093B3128091BC03C6
:105530009091BD03A091BE03B091BF038093B412BC
:105540009093B512A093B612B093B7128CE092E18B
:105550000E9463A061E173E0CE0101960E943E9C2F
:105560006091B4127091B5128091B6129091B712F9
:105570000E9445EAC35EDC4F79836883CD51D340F6
:105580006091B0127091B1128091B2129091B312E9
:105590000E9445EAC55EDC4F79836883CB51D340D6
:1055A0006091AC127091AD128091AE129091AF12D9
:1055B0000E9445EAC75EDC4F79836883C951D340B6
:1055C0008091A8129091A912CD5EDC4F99838883B7
:1055D000C351D3408091A4129091A512C35FDC4FB8
:1055E00099838883CD50D3408091A0129091A112CD
:1055F000C95FDC4F99838883C750D34080919C1248
:1056000090919D12CF5FDC4F99838883C150D34026
:10561000BE016F5F7C4FCE0101960E94D5A7BE01EF
:10562000695F7C4F0E94D5A7BE01635F7C4F0E94DB
:10563000D5A7BE016D5E7C4F0E94D5A7BE01675EF7
:105640007C4F0E94D5A7BE01655E7C4F0E94D5A706
:10565000BE01635E7C4F0E94D5A761E0CE0101963A
:105660000E945DA741E06CE48CE092E10E946BA097
:10567000CDC447E061E173E0CE0101960E940E9C2B
:10568000CE0101960E946C9B81110DC06BE373E00B
:10569000CE018F5F9C4F0E948F62CE018F5F9C4F27
:1056A0000E948A62B3C4C35EDC4F19821882CD5156
:1056B000D340C55EDC4F19821882CB51D340C75E00
:1056C000DC4F19821882C951D340CD5EDC4F19825C
:1056D0001882C351D340C35FDC4F19821882CD506A
:1056E000D340C95FDC4F19821882C750D340CF5FC7
:1056F000DC4F19821882C150D340BE01635E7C4FDB
:10570000CE0101960E9418A6BE01655E7C4F0E94E4
:1057100018A6BE01675E7C4F0E9418A6BE016D5E92
:105720007C4F0E9418A6BE01635F7C4F0E9418A6A2
:10573000BE01695F7C4F0E9418A6BE016F5F7C4F5F
:105740000E9418A6C35EDC4F88809980CD51D3405B
:10575000A12CB12C80929C1290929D12A0929E122C
:10576000B0929F12C55EDC4FC880D980CB51D34028
:10577000E12CF12CC092A012D092A112E092A212C0
:10578000F092A312C75EDC4F88819981C951D34042
:105790009C0140E050E0CE5DDC4F288339834A8392
:1057A0005B83C252D3402093A4123093A51240933E
:1057B000A6125093A712CD5EDC4F88819981C35108
:1057C000D3409C0140E050E0CA5DDC4F2883398320
:1057D0004A835B83C652D3402093A8123093A91208
:1057E0004093AA125093AB12C35FDC4F688179815A
:1057F000CD50D34080E090E00E94A8E49B01AC0132
:105800006093AC127093AD128093AE129093AF126E
:10581000C95FDC4F68817981C750D34080E090E058
:10582000C35DDC4F2883CD52D340C65DDC4F388347
:10583000CA52D340C55DDC4F4883CB52D340C45DD0
:10584000DC4F5883CC52D3400E94A8E42B013C018A
:105850006093B0127093B1128093B2129093B3120E
:10586000CF5FDC4F68817981C150D34080E090E008
:105870000E94A8E46093B4127093B5128093B6129C
:105880009093B7128092C8039092C903A092CA0362
:10589000B092CB03C092CC03D092CD03E092CE0362
:1058A000F092CF03CE5DDC4FE880F9800A811B8146
:1058B000C252D340E092D003F092D1030093D203BE
:1058C0001093D303CA5DDC4FE880F9800A811B8105
:1058D000C652D340E092D403F092D5030093D6038E
:1058E0001093D703C35DDC4F2881CD52D340C65DF2
:1058F000DC4F3881CA52D340C55DDC4F4881CB5262
:10590000D340C45DDC4F5881CC52D3402093C403B4
:105910003093C5034093C6035093C7034092C0031E
:105920005092C1036092C2037092C3036093BC03A0
:105930007093BD038093BE039093BF030E9465A341
:105940008CE092E10E945EA261C38CE092E10E9431
:10595000ECA15CC368E273E0CE0101960E948F6205
:10596000CE0101960E948A6251C30EEFE0160FEF3E
:10597000F00609F4C9C008F09CC1EF2809F09EC1E7
:105980008091AC039091AD03A091AE03B091AF03B1
:105990008093B8129093B912A093BA12B093BB122D
:1059A0008091B0039091B103A091B203B091B30381
:1059B0008093BC129093BD12A093BE12B093BF12FD
:1059C0008091B4039091B503A091B603B091B70351
:1059D0008093C0129093C112A093C212B093C312CD
:1059E0008091B8039091B903A091BA03B091BB0321
:1059F0008093C4129093C512A093C612B093C7129D
:105A00008CE092E10E9463A068E173E0CE01019610
:105A10000E943E9C20E030E040E251E46091C412DC
:105A20007091C5128091C6129091C7120E9409E52B
:105A30000E9445EACD5EDC4F79836883C351D34031
:105A400020E030E040E251E46091C0127091C11258
:105A50008091C2129091C3120E9409E50E9445EA0A
:105A6000C35FDC4F79836883CD50D34020E030E0C2
:105A700040E251E46091BC127091BD128091BE125F
:105A80009091BF120E9409E50E9445EAC95FDC4F70
:105A900079836883C750D34020E030E040E251E48E
:105AA0006091B8127091B9128091BA129091BB12A4
:105AB0000E9409E50E9445EACF5FDC4F7983688345
:105AC000C150D340BE016F5F7C4FCE0101960E9452
:105AD000D5A7BE01695F7C4F0E94D5A7BE01635F59
